:101C000011241FBECFE5D4E0DEBFCDBF10E0A0E6BB
:101C1000B0E001C01D92A03AB107E1F703D09AC12C
:101C200000C008952F923F924F925F926F927F92E1
:101C30008F929F92AF92BF92CF92DF92EF92FF92DC
:101C40000F931F93CF93DF93C49ABC9AF894A895EF
:101C500088E10FB6F89481BD11BC0FBE8B98939AA2
:101C600010BC99E199B98AB986E880BD839B05C00B
:101C7000C498BC98E0E0F0E00995C0E0D0E088248A
:101C800089E5582E0DE0902E11E1612EBFE47B2EE8
:101C9000A0E34A2EF8E33F2EE7E02E2E5F9BFECF17
:101CA0009CB1913621F45D9BFECF5CB8F7CF9134A7
:101CB00079F45F9BFECF9CB15F9BFECF8CB15D9BA7
:101CC000FECFB92EAA24C82FD0E0CA29DB29FDC037
:101CD000923659F45D9BFECF5CB85D9BFECF1CB87D
:101CE0005D9BFECF20E42CB9D9CF923409F05BC0C4
:101CF0005F9BFECF8CB15F9BFECF6CB15F9BFECF35
:101D00002CB190E0E0E6F0E0961710F08FEF03C002
:101D10005F9BFECF8CB180839F5F903411F0319632
:101D2000F3CF77E7871609F03BC0263491F57E01A3
:101D300000E010E0EE0CFF1C001F111FA80197012E
:101D4000A0E6B0E08C9190E01196DC901197CC2445
:101D50008C299D29129671E0F9010C0170935700AE
:101D6000E89511242E5F3F4F4F4F5F4F625051F760
:101D700075E0F70170935700E89507B600FCFDCFBA
:101D800060925700E8955695479537952795E90154
:101D900004C0253411F4C60FD11D5D9BFECF95C044
:101DA0005D9BFECF7FC0973609F03CC05F9BFECFA6
:101DB0008CB15F9BFECFFCB05F9BFECF8CB18634B5
:101DC000E1F4CE01A0E0B0E0880F991FAA1FBB1F6D
:101DD000FC01259134915D9BFECF2CB95D9BFECF1C
:101DE0003CB90296A11DB11DEEEFFE0E89F7B69526
:101DF000A79597958795EC0151CF853409F04ECF83
:101E0000EF2C8E01C8019ED05D9BFECF8CB90F5F79
:101E10001F4FEA94B9F7FA948F2D90E00196C80FFE
:101E2000D91F3CCF9536C1F4F7E78F1691F4E0E067
:101E3000F0E023E020935700E89507B600FCFDCFC3
:101E4000E05CFF4F7CE1E030F70799F760925700C4
:101E5000E8955D9BFECF39C0953461F42CE088E1B4
:101E600090E00FB6F894A89581BD0FBE21BD5D9B93
:101E7000FECF2BC0903519F45D9BFECF26C09C345D
:101E800019F45D9BFECF21C0903721F45D9BFECFFE
:101E900083E556C0943741F45D9BFECFE7E7ECB98C
:101EA0005D9BFECF1CB8FACE892F8857823030F464
:101EB0005F9BFECF8CB15D9BFECF07C0943539F49C
:101EC0005F9BFECF8CB05D9BFECF9CB8E7CE933579
:101ED000D9F45D9BFECFF1E4FCB95D9BFECF26E516
:101EE0002CB95D9BFECF72E57CB95D9BFECF82E491
:101EF0008CB95D9BFECF7CB85D9BFECF7CB85D9BB3
:101F0000FECFE4E5ECB9CACE963539F45D9BFECF41
:101F10004CB85D9BFECF3CB8C1CE933759F45D9B66
:101F2000FECF2CB85D9BFECFF3E9FCB95D9BFECFE5
:101F30008EE106C09B3109F4B1CE5D9BFECF8FE3ED
:101F40008CB9ACCEE199FECF9FBB8EBBE09A9927AE
:081F50008DB30895F894FFCF52
:0400000300001C00DD
:00000001FF
